{
  "_format": "hh-sol-artifact-1",
  "contractName": "TokenExchange",
  "sourceName": "contracts/exchange.sol",
  "abi": [
    {
      "inputs": [],
      "stateMutability": "nonpayable",
      "type": "constructor"
    },
    {
      "anonymous": false,
      "inputs": [
        {
          "indexed": true,
          "internalType": "address",
          "name": "previousOwner",
          "type": "address"
        },
        {
          "indexed": true,
          "internalType": "address",
          "name": "newOwner",
          "type": "address"
        }
      ],
      "name": "OwnershipTransferred",
      "type": "event"
    },
    {
      "inputs": [],
      "name": "addLiquidity",
      "outputs": [],
      "stateMutability": "payable",
      "type": "function"
    },
    {
      "inputs": [
        {
          "internalType": "uint256",
          "name": "amountTokens",
          "type": "uint256"
        }
      ],
      "name": "createPool",
      "outputs": [],
      "stateMutability": "payable",
      "type": "function"
    },
    {
      "inputs": [],
      "name": "exchange_name",
      "outputs": [
        {
          "internalType": "string",
          "name": "",
          "type": "string"
        }
      ],
      "stateMutability": "view",
      "type": "function"
    },
    {
      "inputs": [],
      "name": "getReserves",
      "outputs": [
        {
          "internalType": "uint256",
          "name": "",
          "type": "uint256"
        },
        {
          "internalType": "uint256",
          "name": "",
          "type": "uint256"
        }
      ],
      "stateMutability": "view",
      "type": "function"
    },
    {
      "inputs": [],
      "name": "getSwapFee",
      "outputs": [
        {
          "internalType": "uint256",
          "name": "",
          "type": "uint256"
        },
        {
          "internalType": "uint256",
          "name": "",
          "type": "uint256"
        }
      ],
      "stateMutability": "view",
      "type": "function"
    },
    {
      "inputs": [],
      "name": "owner",
      "outputs": [
        {
          "internalType": "address",
          "name": "",
          "type": "address"
        }
      ],
      "stateMutability": "view",
      "type": "function"
    },
    {
      "inputs": [],
      "name": "removeAllLiquidity",
      "outputs": [],
      "stateMutability": "payable",
      "type": "function"
    },
    {
      "inputs": [
        {
          "internalType": "uint256",
          "name": "amountETH",
          "type": "uint256"
        }
      ],
      "name": "removeLiquidity",
      "outputs": [],
      "stateMutability": "payable",
      "type": "function"
    },
    {
      "inputs": [],
      "name": "renounceOwnership",
      "outputs": [],
      "stateMutability": "nonpayable",
      "type": "function"
    },
    {
      "inputs": [],
      "name": "swapETHForTokens",
      "outputs": [],
      "stateMutability": "payable",
      "type": "function"
    },
    {
      "inputs": [
        {
          "internalType": "uint256",
          "name": "amountTokens",
          "type": "uint256"
        }
      ],
      "name": "swapTokensForETH",
      "outputs": [],
      "stateMutability": "payable",
      "type": "function"
    },
    {
      "inputs": [],
      "name": "token",
      "outputs": [
        {
          "internalType": "contract Token",
          "name": "",
          "type": "address"
        }
      ],
      "stateMutability": "view",
      "type": "function"
    },
    {
      "inputs": [
        {
          "internalType": "address",
          "name": "newOwner",
          "type": "address"
        }
      ],
      "name": "transferOwnership",
      "outputs": [],
      "stateMutability": "nonpayable",
      "type": "function"
    }
  ],
  "bytecode": "0x60806040526040518060400160405280600681526020017f4b4d532045580000000000000000000000000000000000000000000000000000815250600190816200004a9190620004a7565b50735fbdb2315678afecb367f032d93f642f64180aa3600260006101000a81548173ffffffffffffffffffffffffffffffffffffffff021916908373ffffffffffffffffffffffffffffffffffffffff160217905550600260009054906101000a900473ffffffffffffffffffffffffffffffffffffffff16600360006101000a81548173ffffffffffffffffffffffffffffffffffffffff021916908373ffffffffffffffffffffffffffffffffffffffff16021790555060006004556000600555600060065560006007556000600a556003600b556064600c55620186a0600e553480156200013a57600080fd5b506200015b6200014f6200016160201b60201c565b6200016960201b60201c565b6200058e565b600033905090565b60008060009054906101000a900473ffffffffffffffffffffffffffffffffffffffff169050816000806101000a81548173ffffffffffffffffffffffffffffffffffffffff021916908373ffffffffffffffffffffffffffffffffffffffff1602179055508173ffffffffffffffffffffffffffffffffffffffff168173ffffffffffffffffffffffffffffffffffffffff167f8be0079c531659141344cd1fd0a4f28419497f9722a3daafe3b4186f6b6457e060405160405180910390a35050565b600081519050919050565b7f4e487b7100000000000000000000000000000000000000000000000000000000600052604160045260246000fd5b7f4e487b7100000000000000000000000000000000000000000000000000000000600052602260045260246000fd5b60006002820490506001821680620002af57607f821691505b602082108103620002c557620002c462000267565b5b50919050565b60008190508160005260206000209050919050565b60006020601f8301049050919050565b600082821b905092915050565b6000600883026200032f7fffffffffffffffffffffffffffffffffffffffffffffffffffffffffffffffff82620002f0565b6200033b8683620002f0565b95508019841693508086168417925050509392505050565b6000819050919050565b6000819050919050565b600062000388620003826200037c8462000353565b6200035d565b62000353565b9050919050565b6000819050919050565b620003a48362000367565b620003bc620003b3826200038f565b848454620002fd565b825550505050565b600090565b620003d3620003c4565b620003e081848462000399565b505050565b5b818110156200040857620003fc600082620003c9565b600181019050620003e6565b5050565b601f82111562000457576200042181620002cb565b6200042c84620002e0565b810160208510156200043c578190505b620004546200044b85620002e0565b830182620003e5565b50505b505050565b600082821c905092915050565b60006200047c600019846008026200045c565b1980831691505092915050565b600062000497838362000469565b9150826002028217905092915050565b620004b2826200022d565b67ffffffffffffffff811115620004ce57620004cd62000238565b5b620004da825462000296565b620004e78282856200040c565b600060209050601f8311600181146200051f57600084156200050a578287015190505b62000516858262000489565b86555062000586565b601f1984166200052f86620002cb565b60005b82811015620005595784890151825560018201915060208501945060208101905062000532565b8683101562000579578489015162000575601f89168262000469565b8355505b6001600288020188555050505b505050505050565b6115fe806200059e6000396000f3fe6080604052600436106100c25760003560e01c8063d4cadf681161007f578063e8078d9411610059578063e8078d94146101c9578063f2fde38b146101d3578063f694f7d1146101fc578063fc0c546a14610227576100c2565b8063d4cadf6814610177578063d592cbf6146101a3578063e56a645e146101ad576100c2565b80630902f1ac146100c7578063715018a6146100f35780638259e6a01461010a57806388a780e5146101265780638da5cb5b146101305780639c8f9f231461015b575b600080fd5b3480156100d357600080fd5b506100dc610252565b6040516100ea929190610cdf565b60405180910390f35b3480156100ff57600080fd5b50610108610263565b005b610124600480360381019061011f9190610d39565b610277565b005b61012e610627565b005b34801561013c57600080fd5b50610145610629565b6040516101529190610da7565b60405180910390f35b61017560048036038101906101709190610d39565b610652565b005b34801561018357600080fd5b5061018c61077e565b60405161019a929190610cdf565b60405180910390f35b6101ab61078f565b005b6101c760048036038101906101c29190610d39565b610791565b005b6101d1610794565b005b3480156101df57600080fd5b506101fa60048036038101906101f59190610dee565b610a45565b005b34801561020857600080fd5b50610211610ac8565b60405161021e9190610eab565b60405180910390f35b34801561023357600080fd5b5061023c610b56565b6040516102499190610f2c565b60405180910390f35b600080600554600454915091509091565b61026b610b7c565b6102756000610bfa565b565b61027f610b7c565b6000600454146102c4576040517f08c379a00000000000000000000000000000000000000000000000000000000081526004016102bb90610f93565b60405180910390fd5b600060055414610309576040517f08c379a000000000000000000000000000000000000000000000000000000000815260040161030090610fff565b60405180910390fd5b6000341161034c576040517f08c379a00000000000000000000000000000000000000000000000000000000081526004016103439061106b565b60405180910390fd5b6000600360009054906101000a900473ffffffffffffffffffffffffffffffffffffffff1673ffffffffffffffffffffffffffffffffffffffff166370a08231336040518263ffffffff1660e01b81526004016103a99190610da7565b602060405180830381865afa1580156103c6573d6000803e3d6000fd5b505050506040513d601f19601f820116820180604052508101906103ea91906110a0565b90508082111561042f576040517f08c379a00000000000000000000000000000000000000000000000000000000081526004016104269061113f565b60405180910390fd5b60008211610472576040517f08c379a0000000000000000000000000000000000000000000000000000000008152600401610469906111ab565b60405180910390fd5b600360009054906101000a900473ffffffffffffffffffffffffffffffffffffffff1673ffffffffffffffffffffffffffffffffffffffff166323b872dd3330856040518463ffffffff1660e01b81526004016104d1939291906111cb565b6020604051808303816000875af11580156104f0573d6000803e3d6000fd5b505050506040513d601f19601f82011682018060405250810190610514919061123a565b50600360009054906101000a900473ffffffffffffffffffffffffffffffffffffffff1673ffffffffffffffffffffffffffffffffffffffff166370a08231306040518263ffffffff1660e01b81526004016105709190610da7565b602060405180830381865afa15801561058d573d6000803e3d6000fd5b505050506040513d601f19601f820116820180604052508101906105b191906110a0565b600481905550346005819055506005546004546105ce9190611296565b600d81905550620186a0600a819055506064600860003373ffffffffffffffffffffffffffffffffffffffff1673ffffffffffffffffffffffffffffffffffffffff168152602001908152602001600020819055505050565b565b60008060009054906101000a900473ffffffffffffffffffffffffffffffffffffffff16905090565b600860003373ffffffffffffffffffffffffffffffffffffffff1673ffffffffffffffffffffffffffffffffffffffff16815260200190815260200160002054600a5461069f9190611307565b6005546106ac9190611307565b8111156106b857600080fd5b6000600554600454836106cb9190611296565b6106d59190611307565b9050600360009054906101000a900473ffffffffffffffffffffffffffffffffffffffff1673ffffffffffffffffffffffffffffffffffffffff166323b872dd3033846040518463ffffffff1660e01b8152600401610736939291906111cb565b6020604051808303816000875af1158015610755573d6000803e3d6000fd5b505050506040513d601f19601f82011682018060405250810190610779919061123a565b505050565b600080600b54600c54915091509091565b565b50565b600034116107d7576040517f08c379a00000000000000000000000000000000000000000000000000000000081526004016107ce906113aa565b60405180910390fd5b6000600360009054906101000a900473ffffffffffffffffffffffffffffffffffffffff1673ffffffffffffffffffffffffffffffffffffffff166370a08231336040518263ffffffff1660e01b81526004016108349190610da7565b602060405180830381865afa158015610851573d6000803e3d6000fd5b505050506040513d601f19601f8201168201806040525081019061087591906110a0565b905060006005546004543461088a9190611296565b6108949190611307565b9050818111156108d9576040517f08c379a00000000000000000000000000000000000000000000000000000000081526004016108d090611416565b60405180910390fd5b600360009054906101000a900473ffffffffffffffffffffffffffffffffffffffff1673ffffffffffffffffffffffffffffffffffffffff166323b872dd3330846040518463ffffffff1660e01b8152600401610938939291906111cb565b6020604051808303816000875af1158015610957573d6000803e3d6000fd5b505050506040513d601f19601f8201168201806040525081019061097b919061123a565b50806004600082825461098e9190611436565b9250508190555034600560008282546109a79190611436565b925050819055506004546005546109be9190611296565b600d819055506000600554600a54346109d79190611296565b6109e19190611307565b905080600860003373ffffffffffffffffffffffffffffffffffffffff1673ffffffffffffffffffffffffffffffffffffffff1681526020019081526020016000208190555080600a6000828254610a399190611436565b92505081905550505050565b610a4d610b7c565b600073ffffffffffffffffffffffffffffffffffffffff168173ffffffffffffffffffffffffffffffffffffffff1603610abc576040517f08c379a0000000000000000000000000000000000000000000000000000000008152600401610ab3906114dc565b60405180910390fd5b610ac581610bfa565b50565b60018054610ad59061152b565b80601f0160208091040260200160405190810160405280929190818152602001828054610b019061152b565b8015610b4e5780601f10610b2357610100808354040283529160200191610b4e565b820191906000526020600020905b815481529060010190602001808311610b3157829003601f168201915b505050505081565b600360009054906101000a900473ffffffffffffffffffffffffffffffffffffffff1681565b610b84610cbe565b73ffffffffffffffffffffffffffffffffffffffff16610ba2610629565b73ffffffffffffffffffffffffffffffffffffffff1614610bf8576040517f08c379a0000000000000000000000000000000000000000000000000000000008152600401610bef906115a8565b60405180910390fd5b565b60008060009054906101000a900473ffffffffffffffffffffffffffffffffffffffff169050816000806101000a81548173ffffffffffffffffffffffffffffffffffffffff021916908373ffffffffffffffffffffffffffffffffffffffff1602179055508173ffffffffffffffffffffffffffffffffffffffff168173ffffffffffffffffffffffffffffffffffffffff167f8be0079c531659141344cd1fd0a4f28419497f9722a3daafe3b4186f6b6457e060405160405180910390a35050565b600033905090565b6000819050919050565b610cd981610cc6565b82525050565b6000604082019050610cf46000830185610cd0565b610d016020830184610cd0565b9392505050565b600080fd5b610d1681610cc6565b8114610d2157600080fd5b50565b600081359050610d3381610d0d565b92915050565b600060208284031215610d4f57610d4e610d08565b5b6000610d5d84828501610d24565b91505092915050565b600073ffffffffffffffffffffffffffffffffffffffff82169050919050565b6000610d9182610d66565b9050919050565b610da181610d86565b82525050565b6000602082019050610dbc6000830184610d98565b92915050565b610dcb81610d86565b8114610dd657600080fd5b50565b600081359050610de881610dc2565b92915050565b600060208284031215610e0457610e03610d08565b5b6000610e1284828501610dd9565b91505092915050565b600081519050919050565b600082825260208201905092915050565b60005b83811015610e55578082015181840152602081019050610e3a565b60008484015250505050565b6000601f19601f8301169050919050565b6000610e7d82610e1b565b610e878185610e26565b9350610e97818560208601610e37565b610ea081610e61565b840191505092915050565b60006020820190508181036000830152610ec58184610e72565b905092915050565b6000819050919050565b6000610ef2610eed610ee884610d66565b610ecd565b610d66565b9050919050565b6000610f0482610ed7565b9050919050565b6000610f1682610ef9565b9050919050565b610f2681610f0b565b82525050565b6000602082019050610f416000830184610f1d565b92915050565b7f546f6b656e20726573657276657320776173206e6f7420300000000000000000600082015250565b6000610f7d601883610e26565b9150610f8882610f47565b602082019050919050565b60006020820190508181036000830152610fac81610f70565b9050919050565b7f45544820726573657276657320776173206e6f7420302e000000000000000000600082015250565b6000610fe9601783610e26565b9150610ff482610fb3565b602082019050919050565b6000602082019050818103600083015261101881610fdc565b9050919050565b7f4e6565642065746820746f2063726561746520706f6f6c2e0000000000000000600082015250565b6000611055601883610e26565b91506110608261101f565b602082019050919050565b6000602082019050818103600083015261108481611048565b9050919050565b60008151905061109a81610d0d565b92915050565b6000602082840312156110b6576110b5610d08565b5b60006110c48482850161108b565b91505092915050565b7f4e6f74206861766520656e6f75676820746f6b656e7320746f2063726561746560008201527f2074686520706f6f6c0000000000000000000000000000000000000000000000602082015250565b6000611129602983610e26565b9150611134826110cd565b604082019050919050565b600060208201905081810360008301526111588161111c565b9050919050565b7f4e65656420746f6b656e7320746f2063726561746520706f6f6c2e0000000000600082015250565b6000611195601b83610e26565b91506111a08261115f565b602082019050919050565b600060208201905081810360008301526111c481611188565b9050919050565b60006060820190506111e06000830186610d98565b6111ed6020830185610d98565b6111fa6040830184610cd0565b949350505050565b60008115159050919050565b61121781611202565b811461122257600080fd5b50565b6000815190506112348161120e565b92915050565b6000602082840312156112505761124f610d08565b5b600061125e84828501611225565b91505092915050565b7f4e487b7100000000000000000000000000000000000000000000000000000000600052601160045260246000fd5b60006112a182610cc6565b91506112ac83610cc6565b92508282026112ba81610cc6565b915082820484148315176112d1576112d0611267565b5b5092915050565b7f4e487b7100000000000000000000000000000000000000000000000000000000600052601260045260246000fd5b600061131282610cc6565b915061131d83610cc6565b92508261132d5761132c6112d8565b5b828204905092915050565b7f43616e6e6f7420616464206e6f7468696e6720746f2074686520706f6f6c203a60008201527f2f00000000000000000000000000000000000000000000000000000000000000602082015250565b6000611394602183610e26565b915061139f82611338565b604082019050919050565b600060208201905081810360008301526113c381611387565b9050919050565b7f4e6f7420656e6f75676820746f6b656e00000000000000000000000000000000600082015250565b6000611400601083610e26565b915061140b826113ca565b602082019050919050565b6000602082019050818103600083015261142f816113f3565b9050919050565b600061144182610cc6565b915061144c83610cc6565b925082820190508082111561146457611463611267565b5b92915050565b7f4f776e61626c653a206e6577206f776e657220697320746865207a65726f206160008201527f6464726573730000000000000000000000000000000000000000000000000000602082015250565b60006114c6602683610e26565b91506114d18261146a565b604082019050919050565b600060208201905081810360008301526114f5816114b9565b9050919050565b7f4e487b7100000000000000000000000000000000000000000000000000000000600052602260045260246000fd5b6000600282049050600182168061154357607f821691505b602082108103611556576115556114fc565b5b50919050565b7f4f776e61626c653a2063616c6c6572206973206e6f7420746865206f776e6572600082015250565b6000611592602083610e26565b915061159d8261155c565b602082019050919050565b600060208201905081810360008301526115c181611585565b905091905056fea26469706673582212201b3b1c0a270b0ab8fa8e7648ca17024682edf2d2ef2a80085ddbf0d53bb7d23e64736f6c63430008110033",
  "linkReferences": {},
  "deployedLinkReferences": {}
}